:020000040800F2
:10000000D06C0020E90200083F210008451E0008CE
:100010003D21000843050008FD26000800000000FF
:10002000000000000000000000000000290200089D
:1000300009060008000000008502000845210008AC
:100040000303000803030008030300080303000878
:100050000303000803030008030300080303000868
:100060000303000803030008030300080303000858
:100070000303000803030008030300080303000848
:100080000303000803030008030300080303000838
:1000900045050008030300080303000803030008E4
:1000A0000303000803030008030300080303000818
:1000B0000303000803030008030300080303000808
:1000C00003030008030300080303000803030008F8
:1000D00003030008E52600080303000803030008E3
:1000E00003030008030300080303000803030008D8
:1000F00003030008030300080303000803030008C8
:1001000003030008030300080303000803030008B7
:1001100003030008030300080303000803030008A7
:10012000030300085D0500086905000803030008D3
:100130000303000803030008030300080303000887
:100140005105000803030008030300080303000827
:10015000030300087505000881050008F126000862
:100160000303000803030008030300080303000857
:100170000303000803030008030300080000000055
:10018000030300080303000800F002F800F03CF845
:100190000AA090E8000C82448344AAF10107DA45E2
:1001A00001D100F031F8AFF2090EBAE80F0013F0F8
:1001B000010F18BFFB1A43F0010318470C31000070
:1001C0002C310000103A24BF78C878C1FAD8520701
:1001D00024BF30C830C144BF04680C6070470000C1
:1001E0000023002400250026103A28BF78C1FBD840
:1001F000520728BF30C148BF0B6070471FB502F0DF
:10020000FDFF1FBD10B510BD00F061F91146FFF7ED
:10021000F5FF02F086FA00F07FF903B4FFF7F2FF72
:1002200003BC00F087F900002C4B19680868B0E89F
:10023000F04F80F30988BFF36F8F4FF0000080F319
:10024000118870470000000008480068006880F3CB
:1002500008884FF0000080F3148862B661B6BFF3DF
:100260004F8FBFF36F8F00DF00BF00BF08ED00E0CE
:10027000DFF80C00016841F470010160704700BFB5
:1002800088ED00E0EFF30980BFF36F8F134B1A681E
:100290001EF0100F08BF20ED108A20E9F04F10600B
:1002A00009B44FF0500080F31188BFF34F8FBFF3B4
:1002B0006F8F02F097FD4FF0000080F3118809BCAA
:1002C00019680868B0E8F04F1EF0100F08BFB0ECD6
:1002D000108A80F30988BFF36F8F704724000020D5
:1002E000EFF3058070470000094880470948004740
:1002F000FEE7FEE7FEE7FEE7FEE7FEE7FEE7FEE7D6
:10030000FEE7FEE704480549054A064B7047000032
:10031000F521000889010008D0660020D06C00207B
:10032000D0680020D068002053EA020C00F06980F9
:100330002DE9F04B4FF00006002B1FBFB3FA83F5F9
:1003400003FA05F424FA05F65E4012BF1643B2FA2A
:1003500082F502FA05F4C5F120051EBF22FA05FC5C
:1003600044EA0C04203556EA044C4FEA144418BF02
:10037000641C4FF000084FF00009904271EB030C31
:1003800039D3002919BFB1FA81F701FA07F6B0FA9B
:1003900080F700FA07F6C7F120071EBF20FA07FC16
:1003A00046EA0C062037B6FBF4FCA7EB0507103F26
:1003B00007F01F0BCBF120060CFA0BFB2CFA06F60C
:1003C00044BFB3460026202FA4BF5E464FF0000B6B
:1003D0005BEA060C08BF4FF0010B19EB0B09ABFBF6
:1003E000027C48EB0608C01B06FB02CC0BFB03CCCF
:1003F00071EB0C01C1E70B46024641464846BDE899
:10040000F08B13B54FF000004FF00001AFF3008008
:10041000BDE81C40704710B5203AC0F00B80B1E831
:100420001850203AA0E81850B1E81850A0E8185029
:10043000BFF4F5AF5FEA027C24BFB1E81850A0E832
:10044000185044BF18C918C0BDE810405FEA827C4C
:1004500024BF51F8043B40F8043B08BF7047D20763
:1004600028BF31F8023B48BF11F8012B28BF20F804
:10047000023B48BF00F8012B70474FF0000200B567
:10048000134694469646203922BFA0E80C50A0E8B7
:100490000C50B1F12001BFF4F7AF090728BFA0E865
:1004A0000C5048BF0CC05DF804EB890028BF40F831
:1004B000042B08BF704748BF20F8022B11F0804F73
:1004C00018BF00F8012B704770477047704775469A
:1004D00000F02CF8AE4605006946534620F00700B0
:1004E000854618B020B5FFF70DFFBDE820404FF05E
:1004F00000064FF000074FF000084FF0000B21F00E
:100500000701AC46ACE8C009ACE8C009ACE8C009DA
:10051000ACE8C0098D46704710B50446AFF30080C3
:100520002046BDE81040FFF778BE00000048704745
:100530007066002001491820ABBEFEE726000200CD
:100540007047FEE7014800F063B80000E0020020B9
:10055000014800F05DB8000008030020014800F0E9
:10056000C9BA0000C0040020014800F0C3BA00006E
:1005700000040020014800F0BDBA00002005002062
:10058000014800F0B7BA0000600400200168182399
:10059000CAB2103AB2FBF3F2054B6FF30901032A1A
:1005A0009B5CC36500D9091D816508467047000042
:1005B0007832000810B5014600208B698A6A4FF036
:1005C000C07453B1B3F5005F15D072B1012A0CD0DD
:1005D000022A0AD0032A09D104E01AB1012A06D05E
:1005E000022A03D1C96AC90100D5012010BDC96A18
:1005F000A142FAD010BD002AF7D0012AF2D0022A77
:10060000F3D0032AF3D010BD704772B6FEE77047EF
:100610002DE9F05F0546006800244669D0F8049093
:100620008768D0F80CB0D0F810A0D0F81880F10787
:1006300048D0F90714D001218160B80703D52846B6
:1006400000F0F6F90CE0780702D54FF4006407E0FB
:10065000380702D54FF4805402E0284600F0E7F94D
:10066000F80516D529684FF480708860B80503D561
:10067000284600F0DFF90CE0780502D544F4005478
:1006800007E0380502D544F4804402E0284600F033
:10069000D0F9F80316D529684FF480308860B80384
:1006A00003D5284600F0C8F90CE0780302D544F4DD
:1006B000004407E0380302D544F4803402E02846C1
:1006C00000F0B9F9300707D55FEACB6004D5296897
:1006D000102044F40074C86070074FF0080707D575
:1006E0005FEA0B7004D52868C760284600F09AF9C5
:1006F000B00706D52868C068800702D0284600F0F9
:1007000092F9700607D55FEACA6004D529681020FF
:1007100044F480640861B00607D55FEA0A7004D526
:1007200028680761284600F07FF9F00606D528689A
:100730000069800702D0284600F077F9B00308D599
:100740005FEAC96005D5296810204860284600F096
:100750006DF9F00307D55FEA097004D52868476092
:10076000284600F06AF9300446D55FEA497040D562
:10077000F00504D55FEAC87001D044F00104B0056B
:1007800004D55FEA887001D544F00204700504D5F1
:100790005FEA487001D544F00404300529D518F00B
:1007A000700F26D008F07000402815D006DC102805
:1007B00009D020280AD0302816D10AE050280ED0BF
:1007C000602811D10EE044F008040DE044F010045C
:1007D0000AE044F0200407E044F0400404E044F060
:1007E000800401E044F480742868816921F070017C
:1007F0008161296804204860002C05D0686A204384
:1008000068622846FFF703FFBDE8F09F70B504005B
:1008100003D094F8200010B104E0012070BD204600
:1008200000F082F82068016841F00101016000F0E9
:1008300093FB0546052604E000F08EFB401B0A28CA
:1008400011D820684068C007F6D02068016821F000
:100850000201016000F080FB05460BE000F07CFB2C
:10086000401B0A2806D9606A40F40030606284F8B0
:100870002060D2E7206840688007EFD4207E0128FE
:10088000206801683DD021F080010160607E012870
:100890002068016838D021F040010160A07E012865
:1008A0002068016833D021F020010160E07E01283A
:1008B000206801682ED041F010010160207F0128DE
:1008C0002068016829D021F008010160607F0128BB
:1008D0002068016824D021F004010160D4E90201FC
:1008E0000843D4E90412114308436168491E0843D0
:1008F0002168C86100206062012084F82000002087
:1009000070BD41F08001C0E741F04001C5E741F012
:100910002001CAE721F01001CFE741F00801D4E738
:1009200041F00401D9E70000F0B587B00446142176
:100930006846FFF7A2FD364B3648DFF8D0E019686D
:10094000D4F800C0334A03250226092710300024BA
:10095000491CF44522D11960012907D1016841F0F1
:1009600000710160006800F000700590106840F0B0
:10097000080010601068CDE9005600F00800CDE9CD
:10098000047069462448CDE9024500F0EDF90022E3
:100990000521142000F052FB142032E0DFF87CE047
:1009A000F44530D1D0F800C04CF0806CC0F800C0E5
:1009B000D0F800C001290CF0806CCDF814C019608B
:1009C00007D1016841F000710160006800F000701B
:1009D0000590106840F002001060106802AB00F053
:1009E000020005906020CDE9000683E8B00069466A
:1009F0000B4800F0B9F900220521402000F01EFB51
:100A0000402000F00DFB07B0F0BD00000064004086
:100A10001000002030380240000C02400068004006
:100A20000004024070477047704770477047704736
:100A30007047704770477047704770472DE9F04125
:100A40000446876D00F088FA064694F835000025C4
:100A5000022806D08020606584F834500120BDE86B
:100A6000F0812068016821F0160101602068416969
:100A700021F080014161206C08B9A06C20B1206890
:100A8000016821F0080101602068016821F001017E
:100A900001600CE000F060FA801B052807D92020D7
:100AA0006065032084F8350084F83450D7E7206867
:100AB0000068C007EED194F85C103F208840B86011
:100AC000012084F8350084F834500020C7E790F8FE
:100AD0003510022903D0802141650120704705218E
:100AE00080F835100068016821F0010101600020E4
:100AF000704700002DE9F84304464FF00009CDF897
:100B0000009063484FF41651A56D0068B0FBF1F7F3
:100B10002E6894F85C10082000FA01F131420FD0E1
:100B200021680A6852070BD50A6822F004020A609D
:100B300094F85C108840A860606D40F0010060652A
:100B400094F85C104FF0010808FA01F0304208D028
:100B500021684969090604D5A860606D40F002006B
:100B6000606594F85C1004208840304208D0216809
:100B70000968890704D5A860606D40F004006065CD
:100B800094F85C1010208840304218D02168096821
:100B9000090714D5A86020680168490304D50068D6
:100BA000000308D5A16C07E00168C90503D40168FA
:100BB00021F008010160216C09B12046884794F8B2
:100BC0005C1020208840304231D021680968C90675
:100BD0002DD5A86094F8350005282068016806D056
:100BE000490347D5006800031DD4616C1CE021F067
:100BF000160101602068416921F080014161206C8B
:100C000008B9A06C20B12068016821F008010160DA
:100C100094F85C103F208840A86084F8358084F800
:100C20003490216D1FE0E16B09B120468847606D6B
:100C300000282BD0606DC00714D0052084F8350043
:100C40002068016821F0010101600098401C0090BB
:100C5000B84203D820680068C007F6D184F8358010
:100C600084F83490E16C002910D001B02046BDE832
:100C7000F04308470168C905D5D4016821F0100187
:100C8000016084F8358084F83490CCE7BDE8F883BF
:100C9000200000202DE9F041044600F05DF90646F1
:100CA0005CB1022084F83500002584F834502068B7
:100CB000016821F0010101600DE00120BDE8F08133
:100CC00000F04AF9801B052805D920206065032023
:100CD00084F83500F2E720680068C007F0D1226888
:100CE000116820480140D4E901031843D4E90336D0
:100CF0003343184363691843A3691843E3691843EE
:100D0000236A18430843616A042903D1D4E90B1309
:100D100019430843106020684069666A20F00701A3
:100D200030460E43012704280CD1A06A0643E06A2E
:100D300040B12046FFF73EFC20B14020606584F8BA
:100D40003570BAE7206846612046FFF71FFC94F82B
:100D50005C203F2191408160656584F835700020FA
:100D6000ACE700003F8010F02DE9F84FDFF8BCA1A0
:100D70000022012503264FF00F090AF1040BAAF106
:100D8000040E00BF0B6805FA02F42340A34270D1A1
:100D90000F7907F00307012F01D0022F16D18768C2
:100DA0004FEA420806FA08FC27EA0C07D1F80CC003
:100DB0000CFA08FC4CEA070CC0F808C04768A743C7
:100DC0000C79C4F3001494403C4344600C79E44330
:100DD000A4070AD0C4684FEA420C06FA0CF7BC43D9
:100DE0008F6807FA0CF72743C7600C7904F00304F7
:100DF000022C12D1D40800EB840CDCF820405707F9
:100E0000FF0E09FA07F824EA0804D1F8108008FA5E
:100E100007F848EA0408CCF8208004684FEA420C3E
:100E200006FA0CF7BC430F7907F0030707FA0CF733
:100E3000274307604C6814F4403F70D03C4C27684F
:100E400047F480472760246822F0030704F48044B5
:100E50000094384C07EB040CDCF8084897074FEA7D
:100E6000177809FA08F7BC43334FB84202D100277C
:100E700024E054E0314FB84201D101271EE0304F49
:100E8000B84201D1022719E02E4FB84201D1032701
:100E900014E02D4FB84201D104270FE02B4FB84288
:100EA00001D105270AE02A4FB84201D1062705E003
:100EB000284FB84201D1072700E0082707FA08F7B2
:100EC0002743CCF80878DAF800405746D1F804C038
:100ED0009C435FEACC2C00D51C433C60DBF800400F
:100EE0005F46D1F804C09C435FEA8C2C00D51C43BC
:100EF0003C60DEF800407746D1F804C09C435FEACE
:100F00008C3C00D51C433C60084F083F3C68D1F83E
:100F100004C09C435FEACC3C00D51C433C60521C9F
:100F2000102AFFF42FAFBDE8F88F0000083C014005
:100F300044380240003001400000024000040240FA
:100F400000080240000C0240001002400014024061
:100F500000180240001C02400148806870470000F1
:100F600014000020024881680278114481607047B3
:100F7000140000200B4810B5016841F400710160B5
:100F8000016841F480610160016841F48071016091
:100F9000032000F073F80F2000F006F800F024F8AA
:100FA000002010BD003C024070B50D4D04464FF4CA
:100FB0007A712878B1FBF0F00A490968B1FBF0F0CA
:100FC00000F026FB48B9102C07D200222146501E03
:100FD00000F034F800206C6070BD012070BD00008E
:100FE00014000020200000200C4882B0016841F469
:100FF00080410160006800F4804000900748001FB5
:10100000016841F0805101600068002200F08050CA
:1010100000900F21901E02B000F010B8443802403A
:10102000002809DB00F01F020121914040098000E7
:1010300000F1E020C0F8001170470000F0B40E4B42
:101040001B680C46C3F30223C3F10705042D00D926
:101050000425191D072901D2002300E0DB1E01260B
:1010600006FA05F1491E214099409E40761E164021
:101070003143F0BC01F043BB0CED00E0064900F049
:10108000070208684FF6FF03184040EA0220034AAF
:1010900010430860704700000CED00E00000FA0506
:1010A000704700002DE9F0470E46050065D0DFF8D7
:1010B0001481D8F80000F7B200F00700B04207D260
:1010C00088F80070D8F8000000F00700B04254D152
:1010D00028683D4C810712D5400703D5206840F4AD
:1010E000E05020602878000703D5206840F4604075
:1010F00020602068A96820F0F0000843206028786C
:10110000C0072DD0304968680839012812D002285C
:1011100013D0032811D00968890700292DDA216826
:1011200021F0030101432160FFF716FF814641F2E0
:10113000883A0EE009688903EFE709688901ECE75E
:10114000FFF70AFFA0EB0901514502D90320BDE8D2
:10115000F0872068696800F00C00B0EB810FEFD1D8
:10116000D8F80010404601F00701B14207D90770D6
:10117000006800F00700B04201D00120E7E72878BE
:10118000400705D52068E96820F4E0500843206056
:101190002878000706D52068296920F4604040EAD5
:1011A000C100206000F03EF82168084AC1F3031135
:1011B000515CC8400649086006480068FFF7F4FE25
:1011C0000020C4E7003C024008380240803200089A
:1011D000200000201800002001490120C864704749
:1011E000000047420448054900680968044AC1F301
:1011F0008221515CC840704720000020083802401E
:10120000903200080448054900680968044AC1F39F
:101210004231515CC840704720000020083802402D
:1012200090320008154810B5006810F00C02144800
:1012300013D01449042A0FD0082A0ED10F4C241FB2
:101240002268236802F03F025B0207D52068C0F3E2
:101250008810A0FB010106E0084610BD2168C1F31B
:101260008811A1FB00010023FFF75EF82168C1F39C
:101270000141491C4900B0FBF1F010BD08380240A3
:101280000024F400001BB700054810B500680006F4
:1012900005D5FFF705FF02498020891C087010BDA5
:1012A0000C3802402DE9F84F04006ED02078DFF8AA
:1012B0004C93C007A9F104054AD009F10400016864
:1012C000C1F38101012908D00068C0F38100022820
:1012D0000AD1D9F80000400206D52868800337D526
:1012E00060680028E1D033E06068B0F5803F10D03E
:1012F000B0F5A02F286810D020F48030286028682E
:1013000020F4802028606068A8B1FFF725FE06461B
:101310000DE0286840F48030F4E740F48020286035
:10132000F7E700BFFFF718FE801B642873D8286812
:101330008003F7D50CE0FFF70FFE064605E000BF7F
:10134000FFF70AFE801B6428F0D828688003F7D4D2
:101350002078DFF8AC8280074FF0000A3ED5A7481E
:10136000001D016811F00C0F08D00068C0F3810067
:1013700002280BD1D9F80000400207D42868800762
:1013800016D5E068012800D112E033E1E068B8B179
:101390000120C8F80000FFF7DFFD064605E000BFAA
:1013A000FFF7DAFD801B0228C0D828688007F7D530
:1013B0002868216920F0F80040EAC10028600DE0AB
:1013C000C8F800A0FFF7C8FD064604E0FFF7C4FD1B
:1013D000801B02281FD828688007F7D420780007D0
:1013E00022D5864F87486169703771B1012101604C
:1013F000FFF7B2FD064604E0FFF7AEFD801B0228B2
:1014000009D838688007F7D50EE0C0F800A0FFF7CC
:10141000A3FD064605E082E0FFF79EFD801B022843
:101420007DD838688007F7D42078400768D5DFF882
:10143000CCB100270BF13C0BDBF80000C0000BD453
:10144000DBF8001041F08051CBF80010DBF8000011
:10145000012700F0805000906B4E3068C00510D41A
:10146000306840F480703060FFF776FD009005E052
:10147000FFF772FD0099401A022850D83068C00565
:10148000F6D55E4EA0686C3601280FD0052830686E
:1014900010D020F001003060306820F0040030608F
:1014A000A068B8B1FFF758FD00900FE0306840F039
:1014B0000100F4E740F004003060F7E7FFF74CFD6F
:1014C0000099411A41F28830814266D8306880071D
:1014D000F4D50EE0FFF740FD009007E0FFF73CFD7C
:1014E0000099411A41F28830814256D8306880070D
:1014F000F4D42FB1DBF8001021F08051CBF80010AC
:10150000A069C8B33D49091D0968C1F381010229D9
:101510004AD00228504607D0C8F8600000E03CE0FE
:10152000FFF71AFD04463BE04746C8F86000FFF7A6
:1015300013FD064605E000BFFFF70EFD801B0228E5
:101540002BD828688001F7D4D4E907010843A16AA1
:101550002E4A490802EB0141626A41EA82110843BE
:1015600094F82C1040EA0161C9F800100120386697
:10157000FFF7F2FC044606E03EE000BFFFF7ECFC9C
:10158000001B022809D828688001F7D534E000BF85
:10159000FFF7E2FC001B022802D90320BDE8F88F08
:1015A00028688001F4D427E00128F7D0D9F800009A
:1015B000E26900F4800191421CD1226A00F03F01EF
:1015C000914217D147F6C071626A0140B1EB821FA8
:1015D00010D1A26A4FF0FF3300F4403103EB520206
:1015E000B1EB024F06D194F82C1000F07060B0EB14
:1015F000016F01D00120D1E70020CFE7043802407D
:1016000000004742800E4742007000400000FFFF8C
:1016100010B5401EB0F1807F01D3012010BD4FF006
:10162000E02460610F21601701F069F80020A061DB
:1016300007202061002010BD70B590F83C20012AE1
:1016400032D0012480F83C40022280F83D2003681B
:101650005A689D6822F070060A6832435A60134B3C
:1016600002689A4214D0B2F1804F11D0104B9A42C6
:101670000ED0104B9A420BD00F4B9A4208D00F4B12
:101680009A4205D00E4B9A4202D00E4B9A4204D198
:10169000496825F080031943916080F83D4000219E
:1016A00080F83C10084670BD022070BD000001406B
:1016B0000004004000080040000C0040000401400D
:1016C000004001400018004010B5040003D094F819
:1016D0003D0010B107E0012010BD002084F83C005F
:1016E000204600F01FF8022084F83D00211D2068EC
:1016F00000F088FD012084F8460084F83E0084F85C
:101700003F0084F8400084F8410084F8420084F8E7
:10171000430084F8440084F8450084F83D0000202C
:1017200010BD000008B500680649884208D1064887
:10173000016841F008010160006800F008000090B5
:1017400008BD0000000C00404038024070B504465F
:1017500090F83C000025012817D0012684F83C6051
:10176000022084F83D002068826822F0770222F48B
:101770007F4282600868502838D00DDC20284FD086
:1017800005DC90B3102811D14AE0022070BD30284A
:1017900046D040280AD13BE060282FD070280DD0D9
:1017A000B0F5805F03D0B0F5005F12D0012584F85A
:1017B0003D60002084F83C00284670BDCB68D1E92C
:1017C0000121206800F082FD2068816841F07701E6
:1017D00009E0CB68D1E90121206800F077FD20689D
:1017E000816841F480418160E1E719E0CA68496895
:1017F000206800F03FFE5021206806E0CA68496872
:10180000206800F048FE6021206800F069FDCEE706
:10181000CA684968206800F02DFE40212068F4E77E
:10182000226801461046F0E710B586B00446142140
:101830006846FEF722FE0E492068884215D10D4801
:10184000016841F0800101600068012100F0800022
:1018500005904FF4E05000900220CDE90101039083
:10186000049069460448FFF77FFA06B010BD0000F7
:10187000000C004030380240001C024070B50446A5
:1018800090F83C0000260D4601280FD0012084F876
:101890003C006AB1042A1DD0082A2FD00C2A3FD060
:1018A0000126002084F83C00304670BD022070BD47
:1018B000206800F01DFD2068816941F00801816108
:1018C0002068816921F004018161206881692A69A9
:1018D000114311E0206800F03BFD2068816941F46C
:1018E000006181612068816921F4806181612068E3
:1018F00081692A6941EA02218161D2E7206800F00A
:101900005DFD2068C16941F00801C1612068C169BD
:1019100021F00401C1612068C1692A69114311E005
:10192000206800F07FFD2068C16941F40061C16159
:101930002068C16921F48061C1612068C1692A6998
:1019400041EA0221C161ACE710B5040003D094F86C
:101950003D0010B107E0012010BD002084F83C00DC
:10196000204600F01EF8022084F83D00211D20686A
:1019700000F048FC012084F8460084F83E0084F81A
:101980003F0084F8400084F8410084F8420084F865
:10199000430084F8440084F8450084F83D000020AA
:1019A00010BD704770477047F8B501680446086875
:1019B000CA684B6910F00F0F4FF0000559D003F0C3
:1019C000010602F49077374365D0C10705D0D105F1
:1019D00003D5216C41F001012164410705D5D907E8
:1019E00003D0216C41F002012164810705D5D9079C
:1019F00003D0216C41F004012164010707D502F0F6
:101A00002001314303D0216C41F008012164216C95
:101A100000293AD0800604D5900602D5204600F071
:101A20007BFD20684069216CC0F38010090700D459
:101A300060B3204600F049FD20684069400621D58A
:101A40002068143050E8001F21F0400140E80012E7
:101A5000002AF5D1A06BA8B16C490165A06BFFF716
:101A600036F8002811D0A06B016D01B0BDE8F04040
:101A7000084783060FD593060DD52046BDE8F840EC
:101A800000F04ABD2046FFF78EFFF8BD2046FFF765
:101A90008AFF2564F8BD266B2023012E79D1C60666
:101AA00077D5D60675D5086848680090486940061D
:101AB00040D5A16B086840680004000CEAD0A28DF4
:101AC0008242E7D9E085C869B0F5807F2DD02068D3
:101AD0000C3050E8001F21F4807140E80012002A09
:101AE000F5D12068143050E8001F21F0010140E8D2
:101AF0000012002AF5D12068143050E8001F21F0B0
:101B0000400140E80012002AF5D184F83E302563F8
:101B100020680C3050E8001F21F0100140E800124E
:101B2000002AF5D1A06BFEF789FFA08DE18D401A48
:101B300081B229E0A08DE18D401A81B2E08D0028AC
:101B4000A8D00029A6D020680C3050E8002F22F43D
:101B5000907240E80026002EF5D12068143050E83D
:101B6000002F22F0010240E80026002EF5D184F873
:101B70003E30256320680C3050E8002F22F0100220
:101B800040E80023002BF5D12046FFF70BFFF8BDFE
:101B9000FFE705062BD5150629D594F83D00212829
:101BA000F5D1A068B0F5805F01D12069B0B1206A9D
:101BB000411C2162216800784860E08C401E0004CE
:101BC000000CE084E3D12068C16821F08001C1608D
:101BD0002068C16841F04001C160D8E7206A0088F0
:101BE000C0F308004860206A801C2062E5E74006D8
:101BF000CDD55006CBD5CA68204622F04002CA6037
:101C000084F83D3000F01DF9C1E70000BB24000856
:101C100070B5040004D094F83D00002510B106E032
:101C2000012070BD84F83C50204600F023F82420A9
:101C300084F83D002068C16821F40051C16020464D
:101C400000F0CAFC2068016921F49041016120681C
:101C5000416921F02A0141612068C16841F40051C5
:101C6000C1602564202084F83D0084F83E000020F7
:101C700070BD00002DE9F04F87B00446142168467E
:101C8000FEF7FBFB6648654B22686549143802275E
:101C9000032600254FF4003A4FF0400B4FF48069C3
:101CA0009A4262D10A6842F010020A60096801F0A3
:101CB00010010591016841F002010160016801F025
:101CC00002010591016841F001010160006802AA6A
:101CD00000F0010005908020CDE900074FF00708D3
:101CE00082E8600169464F48FFF73EF83802CDE9C7
:101CF000000702AA694682E860014B48FFF734F802
:101D00004B4E4A484FF000683060C6E90185C6E98D
:101D100003597561B561C6E9075A4F463046756289
:101D2000FEF7B8FF08B1FEF770FCA663B463404E3F
:101D30003E4860367830C6E903577561B56186E87C
:101D400001094FF48030C6E9075030467562FEF74E
:101D5000A1FF08B1FEF759FC666300220621252089
:101D6000B463FFF76BF9252053E0324B9A4252D10E
:101D70000A6842F020020A60096801F0200105911A
:101D8000016841F0400101600068029500F04000E8
:101D900005904FF48440CDE900070820CDE90360A9
:101DA00069462548FEF7E0FF214E2048C036183826
:101DB00030604FF02068C6E90185C6E903597561B6
:101DC000B561C6E9075A4F4630467562FEF762FFB5
:101DD00008B1FEF71AFCA663B463184E1348C6E9AF
:101DE000035775616030B56186E801094FF48030B2
:101DF000C6E9075030467562FEF74CFF08B1FEF7A2
:101E000004FC6663002205214720B463FFF716F93E
:101E10004720FFF705F907B0BDE8F08F001001403B
:101E20004438024000040240000002404064024086
:101E3000000400200014014000180240200500208A
:101E400070477047FEE770470F4810B50D490160B5
:101E50000321416000214FF410228160C0E9031288
:101E60004FF400124261017641768176C1760177A6
:101E70004177FEF7CBFC002803D0BDE81040FEF709
:101E8000C4BB10BD00640040E00200200F4810B544
:101E90000D4901600321416000214FF4102281604F
:101EA000C0E903124FF40012426101764176817657
:101EB000C17601774177FEF7A9FC002803D0BDE881
:101EC0001040FEF7A2BB10BD0068004008030020D0
:101ED000154808B5016841F48001016000680022DE
:101EE00000F48000009005213920FFF7A7F8392081
:101EF000FFF796F8002205213A20FFF79FF83A20D5
:101F0000FFF78EF8002205214520FFF797F84520BE
:101F1000FFF786F8002205214620FFF78FF8BDE87D
:101F200008404620FFF77CB83038024010B59CB01E
:101F30001C2216496846FEF76EFA0021684600F03A
:101F400012FC134C11491C2220601C3107A8FEF71B
:101F500062FA002107A800F006FC0C4960601C2210
:101F600038310EA8FEF757FA00210EA800F0FBFB4F
:101F70000649A0601C22543115A8FEF74CFA002136
:101F800015A800F0F0FBE0601CB010BD083200089E
:101F90000000002000B587B014216846FEF76DFAF6
:101FA0001A48016841F002010160016801F0020174
:101FB0000591016841F040010160016801F04001B4
:101FC0000591016841F001010160016801F0010122
:101FD0000591016841F008010160016801F0080104
:101FE0000591016841F0800101600068694600F0D8
:101FF00080000590022000904FF48810019001208D
:1020000002900348FEF7B0FE07B000BD3038024032
:102010000000024010B58EB0002407940894099483
:102020000A940B941C2168460C94FEF726FA264865
:102030002449C0E900144FF6FF71C0E90241046170
:102040008461FFF741FB08B1FEF7DFFA4FF48050DF
:10205000079007A91C48FFF779FB08B1FEF7D5FAEE
:102060001948FFF771FC08B1FEF7CFFA0B940BA9E2
:1020700015480C94FFF7E0FA08B1FEF7C6FA6020A5
:10208000CDE900040294002269460F480494FFF74A
:10209000F5FB08B1FEF7B9FA042269460A48FFF7D2
:1020A000EDFB08B1FEF7B1FA082269460648FFF7D2
:1020B000E5FB08B1FEF7A9FA0348FFF7B5FB0EB040
:1020C00010BD0000000C0040300300200C4810B58B
:1020D0000A4901604FF4E1314160002181600C2226
:1020E000C160C0E904128161C161FFF791FD002860
:1020F00003D0BDE81040FEF788BA10BD00100140C3
:10210000780300200C4810B50A4901604FF4E13112
:102110004160002181600C22C160C0E9041281612C
:10212000C161FFF775FD002803D0BDE81040FEF740
:102130006CBA10BD00140140BC030020FEE7FFF79D
:10214000A3F8FEE710B5FEF70DFF00F079FF0128B8
:1021500003D0BDE8104000F0F7BE10BD30B593B01D
:1021600030216846FEF789F914210CA8FEF785F99D
:102170001E480025016841F080510160006800F0B0
:10218000805011901A48016841F480410160006854
:10219000022400F48040119001200090000401907E
:1021A0008001CDE9064006200890A820CDE9090469
:1021B00004200B906846FFF775F808B172B6FEE789
:1021C0000CA90F2081E831004FF4A0500F904FF47C
:1021D0008050109005210CA8FEF764FF08B172B67C
:1021E000FEE7FEF7F9FF13B030BD000040380240B3
:1021F000007000400248016841F4700101607047BE
:1022000088ED00E0F0B50268254C264D264E274F9C
:10221000274B4FF0804CA04209D0604507D0A84220
:1022200005D0B04203D0B84201D0984204D122F088
:10223000700E4A6842EA0E02A0421BD0604519D0D7
:10224000A84217D0B04215D0B84213D0984211D04E
:10225000184DA8420ED0184DA8420BD0174DA842D9
:1022600008D0174DA84205D0164DA84202D0164DF1
:10227000A84203D122F44075CA682A434D6922F06E
:1022800080022A4302608A68C2620A688262A042AF
:1022900001D0984201D10969016301214161F0BD7A
:1022A000000001400004004000080040000C004015
:1022B000000401400040014000440140004801404A
:1022C00000180040001C00400020004010B5846849
:1022D00042EA032224F47F440A432243826010BD71
:1022E000826822F070020A4342F007018160704761
:1022F000F0B5026A22F001020262036A4268846950
:10230000124E24F073050C682C4323F002058B68F1
:102310002B430D4DA84201D0B04205D123F0080750
:10232000CB683B4323F00403A84201D0B04205D15F
:102330004D6922F4407215438A692A4342608461E0
:10234000496841630362F0BD0000014000040140A0
:10235000F0B5026A22F010020262026A43688469E0
:102360000D6824F4E64444EA05248D6822F0200236
:1023700042EA05120F4D104EA84201D0B04206D1DC
:10238000CF6822F0800242EA071222F04002A842FF
:1023900001D0B04207D14D6923F4406343EA85037D
:1023A0008D6943EA85034360846149688163026201
:1023B000F0BD00000000014000040140F0B5026AD9
:1023C00022F480720262026A4368C46922F40072D5
:1023D00024F073050C68124E2C438D6842EA0522E6
:1023E0000E4DA84201D0B04206D1CF6822F400625F
:1023F00042EA072222F48062A84201D0B04207D10B
:102400004D6923F4405343EA05138D6943EA0513EC
:102410004360C4614968C1630262F0BD00000140CD
:102420000004014030B5026A22F480520262046A5C
:102430004268C3690D6823F4E64343EA05238D68C7
:1024400024F4005444EA0534084DA84202D0084D53
:10245000A84204D14D6922F4804242EA85124260CA
:10246000C36149680164046230BD0000000001409E
:102470000004014010B5036A046A24F001040462F8
:10248000846924F0F00444EA021423F00A020A43A7
:102490008461026210BD10B5036A23F01003036269
:1024A0008369046A23F4704343EA023224F0A003F0
:1024B00043EA01118261016210BD10B5806B0021F9
:1024C000C185C184FFF76FFA10BD01680C3151E876
:1024D000002F22F4907241E80023002BF5D101680F
:1024E000143151E8002F22F0010241E80023002BB3
:1024F000F5D1016B012909D101680C3151E8002F98
:1025000022F0100241E80023002BF5D1202180F8B1
:102510003E1000210163704708B590F83E10222953
:1025200001D0022008BD82684FF480539A4201D145
:10253000016921B1816A9A421BD04AB10AE002685E
:10254000816A5268C2F308020A80816A891C08E025
:10255000026972B10268526802F07F020A70816AF1
:10256000491C8162C18D491E0904090CC18503D033
:1025700019E002685268F1E70168CA6822F0200297
:10258000CA600168CA6822F48072CA6001684A6938
:1025900022F001024A61202180F83E10016B0129DE
:1025A00003D0FFF74DFC002008BD00210163016846
:1025B0000C3151E8002F22F0100241E80023002BDB
:1025C000F5D101680A68D20602D50A684968009107
:1025D000818DFFF7E7F9E6E770B504460068016909
:1025E000E26821F44051114301612169A068E26968
:1025F00008436169114308432168CA6849F20C63C2
:102600009A430243CA6020684169A26921F440717B
:102610001143416131492068884202D030498842E3
:1026200002D1FEF7EFFD01E0FEF7DCFDE2690023D9
:10263000192164253226B2F5004F626828D0A0FB2C
:102640000101930F9200FDF76FFE0146B0FBF5F01C
:102650006FF01802504301EB800006EB0010B0FB56
:10266000F5F000F0F002B1FBF5F002EB0012B1FB67
:10267000F5F06FF01803584301EB800006EB0010F3
:10268000B0FBF5F000F00F0021681044886070BDC9
:10269000A0FB010192185B41FDF746FE0146B0FB2D
:1026A000F5F00201B1FBF5F06FF01803584301EBB0
:1026B000800006EBC000B0FBF5F000F0F80002EB84
:1026C0004002B1FBF5F0584301EB800006EBC0007F
:1026D000B0FBF5F000F00700D6E700000010014065
:1026E000001401400148FFF75FB9000078030020A3
:1026F0000148FFF759B90000BC030020FEE70907B5
:10270000090E002804DB00F1E02080F80014704777
:1027100000F00F0000F1E02080F8141D70477047B2
:102720007047FEF727FCFFF719FDFFF733FCFFF7B3
:10273000CFFBFFF789FBFFF7A9FBFFF7E3FCFFF7F0
:10274000C5FCFFF767FCFFF7F1FB00F007F8FEE7B9
:102750000021842800D0C11C0846704710B500F045
:10276000F5FA002010BD30B585B004460D4661690C
:10277000B4F90800002910D0A16971B1FFF7E8FF92
:102780006269A1690192029100902B462269216839
:10279000606800F025FC049010E0FFF7D9FF04A961
:1027A00001910090208A2B4682B22168606800F077
:1027B000E1FB012802D005B0002030BD049805B02F
:1027C00030BD000070B5044600F046FA1C4DA86804
:1027D000401CA860286810B1686938B10CE02C6012
:1027E000A868012808D100F0EDF805E02868E16A42
:1027F000C06A884200D82C60686A401C6862E06A3F
:1028000001212A698140114329610E4900EB8000B2
:1028100001EB8000211D00F013FA00F03DFA686919
:1028200000280CD02868E16AC06A884207D20649AD
:102830004FF080500860BFF34F8FBFF36F8F70BDB4
:10284000240000208005002004ED00E070B50D4C50
:102850006068002815D00C4E00F0FEF9F068C568DD
:10286000281D00F0C2F9A068401EA0606068401EEC
:10287000606000F011FA284600F008F8606800284F
:10288000EAD170BD240000204806002010B504469F
:1028900094F8511000290BD0012911D0022914D02D
:1028A000502080F31188BFF34F8FBFF36F8FFEE787
:1028B000206B00F007FA2046BDE8104000F002BA95
:1028C0002046BDE8104000F0FDB910BD4FF4C041F6
:1028D000104810F0070F06D0C01D20F007000D496A
:1028E000411AC1F5C0410C4A1060002353600144F5
:1028F000083921F00701183A11604B600B600B1A80
:10290000436001604068906050604FF0004050614B
:10291000704700007006002078000020074E4FF03E
:102920008054074DFFF792FF30680128FAD92C60D8
:10293000BFF34F8FBFF36F8FF4E7000080050020D7
:1029400004ED00E02DE9F0478146099E089D0A9CB0
:102950009A46521E206B00EB820020F007080027E9
:1029600000290CD0002023180A5C83F834200A5C6C
:1029700012B1401C1028F6D384F8437001E084F8AB
:102980003470072D00D30625E5626564A764201D19
:1029900000F053F904F1180000F04FF92461C5F17B
:1029A0000700A0616462E76484F8507052464946AB
:1029B000404600F003F92060002E00D03460BDE8EE
:1029C000F087000070B500240F4D04EB840005EB88
:1029D000800000F027F9641C072CF6D30B4800F0A8
:1029E00021F90B4800F01EF90A4800F01BF90A48CB
:1029F00000F018F9094800F015F909480349416346
:102A00001431816370BD0000800500200C06002099
:102A10002006002034060020480600205C06002026
:102A20002400002010B4144900E011460A688242D4
:102A3000FBD34B6803EB010C844503D14068184479
:102A4000486008460C68D0F804C00CEB0003A342B1
:102A50000CD10A4B1B689A4206D05268624442600D
:102A60000A681268026002E0036000E002608142CE
:102A700000D0086010BC7047780000206000002083
:102A80000749486B0068002805D0486BC068C068DB
:102A90004068886270474FF0FF30886270470000DE
:102AA000240000200A484068B0F1FF3F07D05020C2
:102AB00080F31188BFF34F8FBFF36F8FFEE7502075
:102AC00080F31188BFF34F8FBFF36F8FFEE70000D5
:102AD000800000202DE9F0410546002600F07AF93B
:102AE000344F386808B9FFF7F1FE7869054251D1D3
:102AF0009DB1083515F0070F0FD005F00700C0F1A4
:102B00000800054415F0070F07D0502080F3118806
:102B1000BFF34F8FBFF36F8FFEE7002D3AD0786879
:102B2000854237D824490846046801E02146044616
:102B30006068A84202D220680028F7D13868844231
:102B400028D0086800F10806206808606068411B0A
:102B500010290FD9601910F0070F07D0502080F30B
:102B60001188BFF34F8FBFF36F8FFEE74160656041
:102B7000FFF758FF61687868401A7860BA68904239
:102B800000D2B86078690843606000202060F8686F
:102B9000401CF86000F0CCFA16F0070F07D0502068
:102BA00080F31188BFF34F8FBFF36F8FFEE730467E
:102BB000BDE8F0816000002078000020001F4FF089
:102BC00080730360001F21F001010160001F0549AF
:102BD000016014380260001F6FF0020101602038AC
:102BE00070470000A52A00087047016943688268A1
:102BF0009A60836842685A604A68824201D182685A
:102C00004A60002202610868401E08600868704738
:102C1000034B036003F1540008608020106070478C
:102C20008C00002000F1080141604FF0FF3282600B
:102C3000C16001610021016070470021016170479E
:102C400042684A6093688B6093685960916008613C
:102C50000168491C01607047502080F31188BFF360
:102C60004F8FBFF36F8F0A494868401C48600128A6
:102C70000CD10848006810F0FF0F07D0502080F3F7
:102C80001188BFF34F8FBFF36F8FFEE770470000CF
:102C90008000002004ED00E009494868002806D0C3
:102CA000401E4860002801D180F3118870475020F1
:102CB00080F31188BFF34F8FBFF36F8FFEE70000E3
:102CC0008000002070B500282AD0A0F10804154D1E
:102CD00060686969084207D1502080F31188BFF30A
:102CE0004F8FBFF36F8FFEE722683AB1502080F319
:102CF0001188BFF34F8FBFF36F8FFEE7884360608B
:102D000000F068F860686968084468602046FFF76A
:102D100089FE2869401C2861BDE8704000F008BAAF
:102D200070BD0000600000204FF0E0200021016134
:102D3000816105494FF47A720968B1FBF2F1491ECD
:102D400041610721016170472000002010B586B065
:102D500000240594049403AA04A905A8FFF758FFCA
:102D600005980499019102900023009415A1174839
:102D7000039A00F035F91649C86208B1012000E055
:102D8000002001280AD0B0F1FF3F19D1502080F374
:102D90001188BFF34F8FBFF36F8FFEE7502080F392
:102DA0001188BFF34F8FBFF36F8F4FF0FF308862F2
:102DB00001204861CC6006B0BDE8104000F042B888
:102DC00006B010BD49444C45000000001D29000814
:102DD000240000200248016B491C01637047000079
:102DE00024000020154A106B002802D00120D06179
:102DF00070470020D0611069B0FA80F0C0F11F0068
:102E00000F4900EB800051F8203073B101EB8000D6
:102E100041684968416000F10803994201D149685D
:102E200041604068C06810607047502080F311888E
:102E3000BFF34F8FBFF36F8FFEE700002400002029
:102E40008005002010B582B038480168384A9142A8
:102E500007D1502080F31188BFF34F8FBFF36F8FDE
:102E6000FEE700683349884207D1502080F311887B
:102E7000BFF34F8FBFF36F8FFEE72F4908780190A4
:102E8000FF200870087800909DF800009DF8002051
:102E900000F0F000904207D0502080F31188BFF37B
:102EA0004F8FBFF36F8FFEE79DF80000234C00F0BB
:102EB000500020700720A0609DF8000010F0800FE7
:102EC0000BD0A068401EA0609DF80000400000905C
:102ED0009DF8000010F0800FF3D1A068032807D000
:102EE000502080F31188BFF34F8FBFF36F8FFEE741
:102EF0004FF44070A060019808701148016841F4D7
:102F000070010160016841F070410160FFF70CFF42
:102F100000206060FDF7ACF90A48016841F04041CB
:102F20000160FDF791F902B0002010BD00ED00E056
:102F300071C20F4170C20F4100E400E08000002028
:102F400020ED00E034EF00E010B5502080F3118850
:102F5000BFF34F8FBFF36F8F00F080F818B10449B3
:102F60004FF080500860002080F3118810BD0000F1
:102F700004ED00E02DE9F04F85B081460F9F0E9ED5
:102F80008A4690469B464FEA8800FFF7A3FD054618
:102F900028000AD05420FFF79DFD04460CB125639C
:102FA00004E02846FFF78EFE00E000249CB10020DC
:102FB00084F8510003905B464246514601970096C3
:102FC00002944846FFF7BEFC2046FFF7FBFB05B026
:102FD0000120BDE8F08F05B04FF0FF30BDE8F08F65
:102FE00070B586B00646DDF828C00C9C0B9800280A
:102FF00016D0ECB1542504952063022084F85100CA
:10300000002005AD0390CDF800C001950294304634
:10301000FFF798FC2046FFF7D5FB059806B070BD7A
:10302000502080F31188BFF34F8FBFF36F8FFEE7FF
:10303000502080F31188BFF34F8FBFF36F8FFEE7EF
:1030400005484169002903D0006B18B10020704782
:103050000120704702207047240000202DE9F0472E
:103060000026314F386B002805D0B869401CB86184
:103070003046BDE8F087F868451CFD609DB9786B67
:10308000006838B1502080F31188BFF34F8FBFF331
:103090006F8FFEE7786BB96B7963B863386A401C51
:1030A0003862FFF7EDFCB86ADFF8808085420FD305
:1030B0004FF00109786B006838B1786BC068C4685C
:1030C0006068854212D2B86202E04FF0FF30B86209
:1030D0003868C06A00EB800058F82000012800D949
:1030E0000126F8690028C3D00126C1E7201DFFF79B
:1030F0007CFDA06A18B104F11800FFF776FDE16AC3
:103100003A6909FA01F01043386101EB810008EBDC
:103110008000211DFFF794FDE06A3968C96A884282
:10312000C8D30126C6E70000240000208005002047
:103130002DE9F0470024A0462D4D286B002807D02C
:10314000FFF78AFD286B401E2863286B40B149E0D9
:10315000502080F31188BFF34F8FBFF36F8FFEE7CE
:10316000A86800283ED0234F3868012600B3A7F195
:10317000B409F868C46804F11800FFF736FD201D93
:10318000FFF733FDE06A2A6906FA00F1114329616D
:1031900000EB800009EB8000211DFFF751FDE06A84
:1031A0002968C96A884200D3EE6138680028E0D1F6
:1031B0000CB1FFF765FCAC6944B1FFF74FFF00B1FC
:1031C000EE61641E002CF8D10020A861E86948B1C6
:1031D0004FF0010808494FF080500860BFF34F8F4F
:1031E000BFF36F8FFFF758FD4046BDE8F087000042
:1031F000240000203406002004ED00E04FF0407071
:10320000E1EE100A70470000AC32000821270008E8
:1032100002000000000000000004000000000000A8
:1032200000000000B83200081F270008030000005B
:10323000000000000004000000000000000000008A
:1032400098320008E92B000803000000000000008D
:10325000000200000000000000000000A43200088E
:10326000471E0008FEFF0000000000008000000074
:1032700000000000000000000006101600061016F6
:103280000000000000000000010203040607080916
:1032900000000000010203047375706572435461FD
:1032A000736B00004C45445461736B004368617359
:1032B0007369735461736B0043616E436F6D6D7519
:1032C0005461736B00000000E83200080000002029
:1032D0008C000000C4010008743300088C0000203A
:1032E000446C0000E0010008000000000000000045
:1032F00000000000000000000000000001000000CD
:1033000010000000000000000024F4000000000095
:1033100000000000000000000000000000000000AD
:10332000000000000000000000000000000000009D
:10333000000000000000000000000000000000008D
:10334000000000000000000000000000000000007D
:10335000000000000000000000000000000000006D
:10336000000000000000000000000000AAAAAAAAB5
:043370000000000059
:040000050800018965
:00000001FF
